{
  "address": "0x5FbDB2315678afecb367f032d93F642f64180aa3",
  "abi": [
    {
      "inputs": [],
      "stateMutability": "payable",
      "type": "constructor"
    },
    {
      "stateMutability": "payable",
      "type": "fallback"
    },
    {
      "inputs": [],
      "name": "allProfiles",
      "outputs": [
        {
          "internalType": "contract Profile[]",
          "name": "",
          "type": "address[]"
        }
      ],
      "stateMutability": "view",
      "type": "function"
    },
    {
      "inputs": [
        {
          "internalType": "string",
          "name": "newUsername",
          "type": "string"
        }
      ],
      "name": "createProfile",
      "outputs": [],
      "stateMutability": "nonpayable",
      "type": "function"
    },
    {
      "inputs": [],
      "name": "owner",
      "outputs": [
        {
          "internalType": "address",
          "name": "",
          "type": "address"
        }
      ],
      "stateMutability": "view",
      "type": "function"
    },
    {
      "stateMutability": "payable",
      "type": "receive"
    }
  ],
  "transactionHash": "0xa26a2bcd909d3d00a06d7fc96a875a1a7b3f33b1760c397f8fd2e3894b251708",
  "args": [],
  "solcInputHash": "5c3710ea85fc204626f2d1b8d3c12f34",
  "bytecode": "0x6080604052600080546001600160a01b03191673150815232dc9a16d8135306d78db6d67fccdedba17905561091d806100396000396000f3fe6080604052600436106100355760003560e01c8063334c3f0e1461003e5780638da5cb5b1461005e578063fa2dfd7f1461009b57005b3661003c57005b005b34801561004a57600080fd5b5061003c6100593660046101b7565b6100bd565b34801561006a57600080fd5b5060005461007e906001600160a01b031681565b6040516001600160a01b0390911681526020015b60405180910390f35b3480156100a757600080fd5b506100b0610148565b6040516100929190610261565b600081336040516100cd906101aa565b6100d89291906102ae565b604051809103906000f0801580156100f4573d6000803e3d6000fd5b506001805480820182556000919091527fb10e2d527612073b26eecdfd717e6a320cf44b4afac2b0732d9fcbe2b7fa0cf60180546001600160a01b0319166001600160a01b03929092169190911790555050565b606060018054806020026020016040519081016040528092919081815260200182805480156101a057602002820191906000526020600020905b81546001600160a01b03168152600190910190602001808311610182575b5050505050905090565b6105bf8061032983390190565b6000602082840312156101c8578081fd5b813567ffffffffffffffff808211156101df578283fd5b818401915084601f8301126101f2578283fd5b81358181111561020457610204610312565b604051601f8201601f19908116603f0116810190838211818310171561022c5761022c610312565b81604052828152876020848701011115610244578586fd5b826020860160208301379182016020019490945295945050505050565b6020808252825182820181905260009190848201906040850190845b818110156102a25783516001600160a01b03168352928401929184019160010161027d565b50909695505050505050565b6040815260008351806040840152815b818110156102db57602081870181015160608684010152016102be565b818111156102ec5782606083860101525b506001600160a01b0393909316602083015250601f91909101601f191601606001919050565b634e487b7160e01b600052604160045260246000fdfe608060405234801561001057600080fd5b506040516105bf3803806105bf83398101604081905261002f9161011e565b8151610042906000906020850190610069565b50600180546001600160a01b0319166001600160a01b03929092169190911790555061024b565b828054610075906101fa565b90600052602060002090601f01602090048101928261009757600085556100dd565b82601f106100b057805160ff19168380011785556100dd565b828001600101855582156100dd579182015b828111156100dd5782518255916020019190600101906100c2565b506100e99291506100ed565b5090565b5b808211156100e957600081556001016100ee565b80516001600160a01b038116811461011957600080fd5b919050565b60008060408385031215610130578182fd5b82516001600160401b0380821115610146578384fd5b818501915085601f830112610159578384fd5b81518181111561016b5761016b610235565b604051601f8201601f19908116603f0116810190838211818310171561019357610193610235565b816040528281526020935088848487010111156101ae578687fd5b8691505b828210156101cf57848201840151818301850152908301906101b2565b828211156101df57868484830101525b95506101ef915050858201610102565b925050509250929050565b600181811c9082168061020e57607f821691505b6020821081141561022f57634e487b7160e01b600052602260045260246000fd5b50919050565b634e487b7160e01b600052604160045260246000fd5b6103658061025a6000396000f3fe608060405234801561001057600080fd5b50600436106100405760003560e01c80629299e31461004557806361fac54d1461005a5780638da5cb5b14610078575b600080fd5b6100586100533660046101e1565b6100a3565b005b6100626100ba565b60405161006f919061028b565b60405180910390f35b60015461008b906001600160a01b031681565b6040516001600160a01b03909116815260200161006f565b80516100b6906000906020840190610148565b5050565b600080546100c7906102de565b80601f01602080910402602001604051908101604052809291908181526020018280546100f3906102de565b80156101405780601f1061011557610100808354040283529160200191610140565b820191906000526020600020905b81548152906001019060200180831161012357829003601f168201915b505050505081565b828054610154906102de565b90600052602060002090601f01602090048101928261017657600085556101bc565b82601f1061018f57805160ff19168380011785556101bc565b828001600101855582156101bc579182015b828111156101bc5782518255916020019190600101906101a1565b506101c89291506101cc565b5090565b5b808211156101c857600081556001016101cd565b6000602082840312156101f2578081fd5b813567ffffffffffffffff80821115610209578283fd5b818401915084601f83011261021c578283fd5b81358181111561022e5761022e610319565b604051601f8201601f19908116603f0116810190838211818310171561025657610256610319565b8160405282815287602084870101111561026e578586fd5b826020860160208301379182016020019490945295945050505050565b6000602080835283518082850152825b818110156102b75785810183015185820160400152820161029b565b818111156102c85783604083870101525b50601f01601f1916929092016040019392505050565b600181811c908216806102f257607f821691505b6020821081141561031357634e487b7160e01b600052602260045260246000fd5b50919050565b634e487b7160e01b600052604160045260246000fdfea2646970667358221220baf85a4babf29005af3226b64bf972efd49aa042482513670e2a8b5a1380983564736f6c63430008040033a2646970667358221220e4c3be54353ff674141ce4acc8d5c2b12cae409bf80d186e65a6da4948d122a264736f6c63430008040033",
  "devdoc": {
    "kind": "dev",
    "methods": {},
    "version": 1
  },
  "userdoc": {
    "kind": "user",
    "methods": {},
    "version": 1
  },
  "storageLayout": {
    "storage": [
      {
        "astId": 17,
        "contract": "contracts/ProfileFactory.sol:ProfileFactory",
        "label": "owner",
        "offset": 0,
        "slot": "0",
        "type": "t_address"
      },
      {
        "astId": 21,
        "contract": "contracts/ProfileFactory.sol:ProfileFactory",
        "label": "_profiles",
        "offset": 0,
        "slot": "1",
        "type": "t_array(t_contract(Profile)86)dyn_storage"
      }
    ],
    "types": {
      "t_address": {
        "encoding": "inplace",
        "label": "address",
        "numberOfBytes": "20"
      },
      "t_array(t_contract(Profile)86)dyn_storage": {
        "base": "t_contract(Profile)86",
        "encoding": "dynamic_array",
        "label": "contract Profile[]",
        "numberOfBytes": "32"
      },
      "t_contract(Profile)86": {
        "encoding": "inplace",
        "label": "contract Profile",
        "numberOfBytes": "20"
      }
    }
  }
}