{
  "address": "0x9fE46736679d2D9a65F0992F2272dE9f3c7fa6e0",
  "abi": [
    {
      "inputs": [],
      "stateMutability": "payable",
      "type": "constructor"
    },
    {
      "stateMutability": "payable",
      "type": "fallback"
    },
    {
      "inputs": [],
      "name": "allProfiles",
      "outputs": [
        {
          "internalType": "contract Profile[]",
          "name": "",
          "type": "address[]"
        }
      ],
      "stateMutability": "view",
      "type": "function"
    },
    {
      "inputs": [
        {
          "internalType": "string",
          "name": "_username",
          "type": "string"
        }
      ],
      "name": "createProfile",
      "outputs": [],
      "stateMutability": "nonpayable",
      "type": "function"
    },
    {
      "inputs": [
        {
          "internalType": "uint256",
          "name": "",
          "type": "uint256"
        }
      ],
      "name": "profiles",
      "outputs": [
        {
          "internalType": "contract Profile",
          "name": "",
          "type": "address"
        }
      ],
      "stateMutability": "view",
      "type": "function"
    },
    {
      "stateMutability": "payable",
      "type": "receive"
    }
  ],
  "transactionHash": "0xa86bdd8968ea0c7e8daf594297a140a85b52f48609d2fce5200d001b7b8c1819",
  "args": [],
  "solcInputHash": "0fa09dfcb9991c6430928048377b0bd2",
  "bytecode": "0x6080604052610bd4806100136000396000f3fe6080604052600436106100355760003560e01c8063334c3f0e1461003e578063c36fe3d61461005e578063fa2dfd7f1461009b57005b3661003c57005b005b34801561004a57600080fd5b5061003c6100593660046101df565b6100bd565b34801561006a57600080fd5b5061007e610079366004610289565b610146565b6040516001600160a01b0390911681526020015b60405180910390f35b3480156100a757600080fd5b506100b0610170565b60405161009291906102a1565b600081336040516100cd906101d2565b6100d89291906102ee565b604051809103906000f0801580156100f4573d6000803e3d6000fd5b50600080546001810182559080527f290decd9548b62a8d60345a988386fc84ba6bc95484008f6362f93160ef3e5630180546001600160a01b0319166001600160a01b03929092169190911790555050565b6000818154811061015657600080fd5b6000918252602090912001546001600160a01b0316905081565b606060008054806020026020016040519081016040528092919081815260200182805480156101c857602002820191906000526020600020905b81546001600160a01b031681526001909101906020018083116101aa575b5050505050905090565b6108368061036983390190565b6000602082840312156101f0578081fd5b813567ffffffffffffffff80821115610207578283fd5b818401915084601f83011261021a578283fd5b81358181111561022c5761022c610352565b604051601f8201601f19908116603f0116810190838211818310171561025457610254610352565b8160405282815287602084870101111561026c578586fd5b826020860160208301379182016020019490945295945050505050565b60006020828403121561029a578081fd5b5035919050565b6020808252825182820181905260009190848201906040850190845b818110156102e25783516001600160a01b0316835292840192918401916001016102bd565b50909695505050505050565b6040815260008351806040840152815b8181101561031b57602081870181015160608684010152016102fe565b8181111561032c5782606083860101525b506001600160a01b0393909316602083015250601f91909101601f191601606001919050565b634e487b7160e01b600052604160045260246000fdfe608060405234801561001057600080fd5b5060405161083638038061083683398101604081905261002f9161011e565b8151610042906000906020850190610069565b50600180546001600160a01b0319166001600160a01b03929092169190911790555061024b565b828054610075906101fa565b90600052602060002090601f01602090048101928261009757600085556100dd565b82601f106100b057805160ff19168380011785556100dd565b828001600101855582156100dd579182015b828111156100dd5782518255916020019190600101906100c2565b506100e99291506100ed565b5090565b5b808211156100e957600081556001016100ee565b80516001600160a01b038116811461011957600080fd5b919050565b60008060408385031215610130578182fd5b82516001600160401b0380821115610146578384fd5b818501915085601f830112610159578384fd5b81518181111561016b5761016b610235565b604051601f8201601f19908116603f0116810190838211818310171561019357610193610235565b816040528281526020935088848487010111156101ae578687fd5b8691505b828210156101cf57848201840151818301850152908301906101b2565b828211156101df57868484830101525b95506101ef915050858201610102565b925050509250929050565b600181811c9082168061020e57607f821691505b6020821081141561022f57634e487b7160e01b600052602260045260246000fd5b50919050565b634e487b7160e01b600052604160045260246000fd5b6105dc8061025a6000396000f3fe608060405234801561001057600080fd5b506004361061007d5760003560e01c80638da5cb5b1161005b5780638da5cb5b146100c9578063c9d3cc6a146100f4578063ec5c187714610107578063f516b4221461010957600080fd5b806306fdde031461008257806361fac54d146100a0578063881d8a40146100a8575b600080fd5b61008a610111565b604051610097919061050d565b60405180910390f35b61008a61019f565b6100bb6100b63660046104aa565b6101ac565b604051610097929190610527565b6001546100dc906001600160a01b031681565b6040516001600160a01b039091168152602001610097565b610107610102366004610449565b6102f0565b005b61008a61031c565b6002805461011e90610555565b80601f016020809104026020016040519081016040528092919081815260200182805461014a90610555565b80156101975780601f1061016c57610100808354040283529160200191610197565b820191906000526020600020905b81548152906001019060200180831161017a57829003601f168201915b505050505081565b6000805461011e90610555565b600481815481106101bc57600080fd5b90600052602060002090600202016000915090508060000180546101df90610555565b80601f016020809104026020016040519081016040528092919081815260200182805461020b90610555565b80156102585780601f1061022d57610100808354040283529160200191610258565b820191906000526020600020905b81548152906001019060200180831161023b57829003601f168201915b50505050509080600101805461026d90610555565b80601f016020809104026020016040519081016040528092919081815260200182805461029990610555565b80156102e65780601f106102bb576101008083540402835291602001916102e6565b820191906000526020600020905b8154815290600101906020018083116102c957829003601f168201915b5050505050905082565b8151610303906002906020850190610329565b508051610317906003906020840190610329565b505050565b6003805461011e90610555565b82805461033590610555565b90600052602060002090601f016020900481019282610357576000855561039d565b82601f1061037057805160ff191683800117855561039d565b8280016001018555821561039d579182015b8281111561039d578251825591602001919060010190610382565b506103a99291506103ad565b5090565b5b808211156103a957600081556001016103ae565b600082601f8301126103d2578081fd5b813567ffffffffffffffff808211156103ed576103ed610590565b604051601f8301601f19908116603f0116810190828211818310171561041557610415610590565b8160405283815286602085880101111561042d578485fd5b8360208701602083013792830160200193909352509392505050565b6000806040838503121561045b578182fd5b823567ffffffffffffffff80821115610472578384fd5b61047e868387016103c2565b93506020850135915080821115610493578283fd5b506104a0858286016103c2565b9150509250929050565b6000602082840312156104bb578081fd5b5035919050565b60008151808452815b818110156104e7576020818501810151868301820152016104cb565b818111156104f85782602083870101525b50601f01601f19169290920160200192915050565b60208152600061052060208301846104c2565b9392505050565b60408152600061053a60408301856104c2565b828103602084015261054c81856104c2565b95945050505050565b600181811c9082168061056957607f821691505b6020821081141561058a57634e487b7160e01b600052602260045260246000fd5b50919050565b634e487b7160e01b600052604160045260246000fdfea26469706673582212206c765b0d2cadbd655ea4d5c0c697b05be3ac73c27e8e134fb063392a91c5252064736f6c63430008040033a26469706673582212203615093b2d43f233a321a5765ea4ed09657bb43d71923d4ae80bb5fff35c80e464736f6c63430008040033",
  "devdoc": {
    "kind": "dev",
    "methods": {},
    "version": 1
  },
  "userdoc": {
    "kind": "user",
    "methods": {},
    "version": 1
  },
  "storageLayout": {
    "storage": [
      {
        "astId": 75,
        "contract": "contracts/ProfileFactory.sol:ProfileFactory",
        "label": "profiles",
        "offset": 0,
        "slot": "0",
        "type": "t_array(t_contract(Profile)55)dyn_storage"
      }
    ],
    "types": {
      "t_array(t_contract(Profile)55)dyn_storage": {
        "base": "t_contract(Profile)55",
        "encoding": "dynamic_array",
        "label": "contract Profile[]",
        "numberOfBytes": "32"
      },
      "t_contract(Profile)55": {
        "encoding": "inplace",
        "label": "contract Profile",
        "numberOfBytes": "20"
      }
    }
  }
}