{
  "_format": "hh-sol-artifact-1",
  "contractName": "Profile",
  "sourceName": "contracts/Profile.sol",
  "abi": [
    {
      "inputs": [
        {
          "internalType": "string",
          "name": "_username",
          "type": "string"
        },
        {
          "internalType": "address",
          "name": "sender",
          "type": "address"
        }
      ],
      "stateMutability": "nonpayable",
      "type": "constructor"
    },
    {
      "inputs": [
        {
          "internalType": "uint256",
          "name": "",
          "type": "uint256"
        }
      ],
      "name": "activeLinks",
      "outputs": [
        {
          "internalType": "string",
          "name": "",
          "type": "string"
        }
      ],
      "stateMutability": "view",
      "type": "function"
    },
    {
      "inputs": [],
      "name": "bio",
      "outputs": [
        {
          "internalType": "string",
          "name": "",
          "type": "string"
        }
      ],
      "stateMutability": "view",
      "type": "function"
    },
    {
      "inputs": [
        {
          "internalType": "string",
          "name": "",
          "type": "string"
        }
      ],
      "name": "links",
      "outputs": [
        {
          "internalType": "string",
          "name": "name",
          "type": "string"
        },
        {
          "internalType": "string",
          "name": "link",
          "type": "string"
        }
      ],
      "stateMutability": "view",
      "type": "function"
    },
    {
      "inputs": [],
      "name": "name",
      "outputs": [
        {
          "internalType": "string",
          "name": "",
          "type": "string"
        }
      ],
      "stateMutability": "view",
      "type": "function"
    },
    {
      "inputs": [],
      "name": "owner",
      "outputs": [
        {
          "internalType": "address",
          "name": "",
          "type": "address"
        }
      ],
      "stateMutability": "view",
      "type": "function"
    },
    {
      "inputs": [
        {
          "internalType": "string[]",
          "name": "linkNames",
          "type": "string[]"
        },
        {
          "internalType": "string[]",
          "name": "linkList",
          "type": "string[]"
        }
      ],
      "name": "updateLinks",
      "outputs": [],
      "stateMutability": "nonpayable",
      "type": "function"
    },
    {
      "inputs": [
        {
          "internalType": "string",
          "name": "_name",
          "type": "string"
        },
        {
          "internalType": "string",
          "name": "_bio",
          "type": "string"
        }
      ],
      "name": "updateProfile",
      "outputs": [],
      "stateMutability": "nonpayable",
      "type": "function"
    },
    {
      "inputs": [],
      "name": "username",
      "outputs": [
        {
          "internalType": "string",
          "name": "",
          "type": "string"
        }
      ],
      "stateMutability": "view",
      "type": "function"
    }
  ],
  "bytecode": "0x60806040523480156200001157600080fd5b5060405162000e8138038062000e81833981016040819052620000349162000134565b81516200004990600090602085019062000071565b50600180546001600160a01b0319166001600160a01b03929092169190911790555062000272565b8280546200007f906200021f565b90600052602060002090601f016020900481019282620000a35760008555620000ee565b82601f10620000be57805160ff1916838001178555620000ee565b82800160010185558215620000ee579182015b82811115620000ee578251825591602001919060010190620000d1565b50620000fc92915062000100565b5090565b5b80821115620000fc576000815560010162000101565b80516001600160a01b03811681146200012f57600080fd5b919050565b6000806040838503121562000147578182fd5b82516001600160401b03808211156200015e578384fd5b818501915085601f83011262000172578384fd5b8151818111156200018757620001876200025c565b604051601f8201601f19908116603f01168101908382118183101715620001b257620001b26200025c565b81604052828152602093508884848701011115620001ce578687fd5b8691505b82821015620001f15784820184015181830185015290830190620001d2565b828211156200020257868484830101525b95506200021491505085820162000117565b925050509250929050565b600181811c908216806200023457607f821691505b602082108114156200025657634e487b7160e01b600052602260045260246000fd5b50919050565b634e487b7160e01b600052604160045260246000fd5b610bff80620002826000396000f3fe608060405234801561001057600080fd5b50600436106100885760003560e01c806361fac54d1161005b57806361fac54d146100f45780638da5cb5b146100fc578063c9d3cc6a14610127578063f516b4221461013a57600080fd5b806306fdde031461008d5780630acbf136146100ab57806345b244c9146100c057806360f95abc146100e1575b600080fd5b610095610142565b6040516100a29190610ac4565b60405180910390f35b6100be6100b936600461094c565b6101d0565b005b6100d36100ce3660046109b5565b6104cd565b6040516100a2929190610ade565b6100956100ef366004610a51565b610604565b61009561062f565b60015461010f906001600160a01b031681565b6040516001600160a01b0390911681526020016100a2565b6100be6101353660046109f0565b61063c565b6100956106ae565b6002805461014f90610b51565b80601f016020809104026020016040519081016040528092919081815260200182805461017b90610b51565b80156101c85780601f1061019d576101008083540402835291602001916101c8565b820191906000526020600020905b8154815290600101906020018083116101ab57829003601f168201915b505050505081565b6001546001600160a01b0316331461021b5760405162461bcd60e51b81526020600482015260096024820152682737ba1037bbb732b960b91b60448201526064015b60405180910390fd5b838383838083146102615760405162461bcd60e51b815260206004820152601060248201526f09cdee840cae2eac2d840d8cadccee8d60831b6044820152606401610212565b8667ffffffffffffffff81111561028857634e487b7160e01b600052604160045260246000fd5b6040519080825280602002602001820160405280156102bb57816020015b60608152602001906001900390816102a65790505b5080516102d0916004916020909101906106bb565b5060005b878110156104c2578686828181106102fc57634e487b7160e01b600052603260045260246000fd5b905060200281019061030e9190610b0c565b6004838154811061032f57634e487b7160e01b600052603260045260246000fd5b906000526020600020019190610346929190610718565b5060405180604001604052808a8a8481811061037257634e487b7160e01b600052603260045260246000fd5b90506020028101906103849190610b0c565b8080601f0160208091040260200160405190810160405280939291908181526020018383808284376000920191909152505050908252506020018888848181106103de57634e487b7160e01b600052603260045260246000fd5b90506020028101906103f09190610b0c565b8080601f0160208091040260200160405190810160405280939291908181526020018383808284376000920191909152505050915250600588888481811061044857634e487b7160e01b600052603260045260246000fd5b905060200281019061045a9190610b0c565b604051610468929190610ab4565b90815260200160405180910390206000820151816000019080519060200190610492929190610798565b5060208281015180516104ab9260018501920190610798565b5090505080806104ba90610b8c565b9150506102d4565b505050505050505050565b80516020818301810180516005825292820191909301209152805481906104f390610b51565b80601f016020809104026020016040519081016040528092919081815260200182805461051f90610b51565b801561056c5780601f106105415761010080835404028352916020019161056c565b820191906000526020600020905b81548152906001019060200180831161054f57829003601f168201915b50505050509080600101805461058190610b51565b80601f01602080910402602001604051908101604052809291908181526020018280546105ad90610b51565b80156105fa5780601f106105cf576101008083540402835291602001916105fa565b820191906000526020600020905b8154815290600101906020018083116105dd57829003601f168201915b5050505050905082565b6004818154811061061457600080fd5b90600052602060002001600091509050805461014f90610b51565b6000805461014f90610b51565b6001546001600160a01b031633146106825760405162461bcd60e51b81526020600482015260096024820152682737ba1037bbb732b960b91b6044820152606401610212565b8151610695906002906020850190610798565b5080516106a9906003906020840190610798565b505050565b6003805461014f90610b51565b828054828255906000526020600020908101928215610708579160200282015b8281111561070857825180516106f8918491602090910190610798565b50916020019190600101906106db565b5061071492915061080c565b5090565b82805461072490610b51565b90600052602060002090601f016020900481019282610746576000855561078c565b82601f1061075f5782800160ff1982351617855561078c565b8280016001018555821561078c579182015b8281111561078c578235825591602001919060010190610771565b50610714929150610829565b8280546107a490610b51565b90600052602060002090601f0160209004810192826107c6576000855561078c565b82601f106107df57805160ff191683800117855561078c565b8280016001018555821561078c579182015b8281111561078c5782518255916020019190600101906107f1565b80821115610714576000610820828261083e565b5060010161080c565b5b80821115610714576000815560010161082a565b50805461084a90610b51565b6000825580601f1061085a575050565b601f0160209004906000526020600020908101906108789190610829565b50565b60008083601f84011261088c578081fd5b50813567ffffffffffffffff8111156108a3578182fd5b6020830191508360208260051b85010111156108be57600080fd5b9250929050565b600082601f8301126108d5578081fd5b813567ffffffffffffffff808211156108f0576108f0610bb3565b604051601f8301601f19908116603f0116810190828211818310171561091857610918610bb3565b81604052838152866020858801011115610930578485fd5b8360208701602083013792830160200193909352509392505050565b60008060008060408587031215610961578384fd5b843567ffffffffffffffff80821115610978578586fd5b6109848883890161087b565b9096509450602087013591508082111561099c578384fd5b506109a98782880161087b565b95989497509550505050565b6000602082840312156109c6578081fd5b813567ffffffffffffffff8111156109dc578182fd5b6109e8848285016108c5565b949350505050565b60008060408385031215610a02578182fd5b823567ffffffffffffffff80821115610a19578384fd5b610a25868387016108c5565b93506020850135915080821115610a3a578283fd5b50610a47858286016108c5565b9150509250929050565b600060208284031215610a62578081fd5b5035919050565b60008151808452815b81811015610a8e57602081850181015186830182015201610a72565b81811115610a9f5782602083870101525b50601f01601f19169290920160200192915050565b8183823760009101908152919050565b602081526000610ad76020830184610a69565b9392505050565b604081526000610af16040830185610a69565b8281036020840152610b038185610a69565b95945050505050565b6000808335601e19843603018112610b22578283fd5b83018035915067ffffffffffffffff821115610b3c578283fd5b6020019150368190038213156108be57600080fd5b600181811c90821680610b6557607f821691505b60208210811415610b8657634e487b7160e01b600052602260045260246000fd5b50919050565b6000600019821415610bac57634e487b7160e01b81526011600452602481fd5b5060010190565b634e487b7160e01b600052604160045260246000fdfea26469706673582212209c62b45054f3aea8f1709ba342bfff24055891029da26cf1fd98e026e9e9f6d164736f6c63430008040033",
  "linkReferences": {},
  "deployedLinkReferences": {}
}