{
  "_format": "hh-sol-artifact-1",
  "contractName": "Profile",
  "sourceName": "contracts/Profile.sol",
  "abi": [
    {
      "inputs": [
        {
          "internalType": "string",
          "name": "_username",
          "type": "string"
        },
        {
          "internalType": "address",
          "name": "sender",
          "type": "address"
        }
      ],
      "stateMutability": "nonpayable",
      "type": "constructor"
    },
    {
      "inputs": [],
      "name": "bio",
      "outputs": [
        {
          "internalType": "string",
          "name": "",
          "type": "string"
        }
      ],
      "stateMutability": "view",
      "type": "function"
    },
    {
      "inputs": [
        {
          "internalType": "uint256",
          "name": "",
          "type": "uint256"
        }
      ],
      "name": "links",
      "outputs": [
        {
          "internalType": "string",
          "name": "name",
          "type": "string"
        },
        {
          "internalType": "string",
          "name": "link",
          "type": "string"
        }
      ],
      "stateMutability": "view",
      "type": "function"
    },
    {
      "inputs": [],
      "name": "name",
      "outputs": [
        {
          "internalType": "string",
          "name": "",
          "type": "string"
        }
      ],
      "stateMutability": "view",
      "type": "function"
    },
    {
      "inputs": [],
      "name": "owner",
      "outputs": [
        {
          "internalType": "address",
          "name": "",
          "type": "address"
        }
      ],
      "stateMutability": "view",
      "type": "function"
    },
    {
      "inputs": [],
      "name": "updateLinks",
      "outputs": [],
      "stateMutability": "nonpayable",
      "type": "function"
    },
    {
      "inputs": [
        {
          "internalType": "string",
          "name": "_name",
          "type": "string"
        },
        {
          "internalType": "string",
          "name": "_bio",
          "type": "string"
        }
      ],
      "name": "updateProfile",
      "outputs": [],
      "stateMutability": "nonpayable",
      "type": "function"
    },
    {
      "inputs": [],
      "name": "username",
      "outputs": [
        {
          "internalType": "string",
          "name": "",
          "type": "string"
        }
      ],
      "stateMutability": "view",
      "type": "function"
    }
  ],
  "bytecode": "0x608060405234801561001057600080fd5b5060405161083638038061083683398101604081905261002f9161011e565b8151610042906000906020850190610069565b50600180546001600160a01b0319166001600160a01b03929092169190911790555061024b565b828054610075906101fa565b90600052602060002090601f01602090048101928261009757600085556100dd565b82601f106100b057805160ff19168380011785556100dd565b828001600101855582156100dd579182015b828111156100dd5782518255916020019190600101906100c2565b506100e99291506100ed565b5090565b5b808211156100e957600081556001016100ee565b80516001600160a01b038116811461011957600080fd5b919050565b60008060408385031215610130578182fd5b82516001600160401b0380821115610146578384fd5b818501915085601f830112610159578384fd5b81518181111561016b5761016b610235565b604051601f8201601f19908116603f0116810190838211818310171561019357610193610235565b816040528281526020935088848487010111156101ae578687fd5b8691505b828210156101cf57848201840151818301850152908301906101b2565b828211156101df57868484830101525b95506101ef915050858201610102565b925050509250929050565b600181811c9082168061020e57607f821691505b6020821081141561022f57634e487b7160e01b600052602260045260246000fd5b50919050565b634e487b7160e01b600052604160045260246000fd5b6105dc8061025a6000396000f3fe608060405234801561001057600080fd5b506004361061007d5760003560e01c80638da5cb5b1161005b5780638da5cb5b146100c9578063c9d3cc6a146100f4578063ec5c187714610107578063f516b4221461010957600080fd5b806306fdde031461008257806361fac54d146100a0578063881d8a40146100a8575b600080fd5b61008a610111565b604051610097919061050d565b60405180910390f35b61008a61019f565b6100bb6100b63660046104aa565b6101ac565b604051610097929190610527565b6001546100dc906001600160a01b031681565b6040516001600160a01b039091168152602001610097565b610107610102366004610449565b6102f0565b005b61008a61031c565b6002805461011e90610555565b80601f016020809104026020016040519081016040528092919081815260200182805461014a90610555565b80156101975780601f1061016c57610100808354040283529160200191610197565b820191906000526020600020905b81548152906001019060200180831161017a57829003601f168201915b505050505081565b6000805461011e90610555565b600481815481106101bc57600080fd5b90600052602060002090600202016000915090508060000180546101df90610555565b80601f016020809104026020016040519081016040528092919081815260200182805461020b90610555565b80156102585780601f1061022d57610100808354040283529160200191610258565b820191906000526020600020905b81548152906001019060200180831161023b57829003601f168201915b50505050509080600101805461026d90610555565b80601f016020809104026020016040519081016040528092919081815260200182805461029990610555565b80156102e65780601f106102bb576101008083540402835291602001916102e6565b820191906000526020600020905b8154815290600101906020018083116102c957829003601f168201915b5050505050905082565b8151610303906002906020850190610329565b508051610317906003906020840190610329565b505050565b6003805461011e90610555565b82805461033590610555565b90600052602060002090601f016020900481019282610357576000855561039d565b82601f1061037057805160ff191683800117855561039d565b8280016001018555821561039d579182015b8281111561039d578251825591602001919060010190610382565b506103a99291506103ad565b5090565b5b808211156103a957600081556001016103ae565b600082601f8301126103d2578081fd5b813567ffffffffffffffff808211156103ed576103ed610590565b604051601f8301601f19908116603f0116810190828211818310171561041557610415610590565b8160405283815286602085880101111561042d578485fd5b8360208701602083013792830160200193909352509392505050565b6000806040838503121561045b578182fd5b823567ffffffffffffffff80821115610472578384fd5b61047e868387016103c2565b93506020850135915080821115610493578283fd5b506104a0858286016103c2565b9150509250929050565b6000602082840312156104bb578081fd5b5035919050565b60008151808452815b818110156104e7576020818501810151868301820152016104cb565b818111156104f85782602083870101525b50601f01601f19169290920160200192915050565b60208152600061052060208301846104c2565b9392505050565b60408152600061053a60408301856104c2565b828103602084015261054c81856104c2565b95945050505050565b600181811c9082168061056957607f821691505b6020821081141561058a57634e487b7160e01b600052602260045260246000fd5b50919050565b634e487b7160e01b600052604160045260246000fdfea26469706673582212206c765b0d2cadbd655ea4d5c0c697b05be3ac73c27e8e134fb063392a91c5252064736f6c63430008040033",
  "linkReferences": {},
  "deployedLinkReferences": {}
}